{
  "abi": [
    {
      "inputs": [],
      "stateMutability": "payable",
      "type": "constructor"
    },
    {
      "inputs": [],
      "name": "YEAR",
      "outputs": [
        {
          "internalType": "uint32",
          "name": "",
          "type": "uint32"
        }
      ],
      "stateMutability": "view",
      "type": "function"
    },
    {
      "inputs": [
        {
          "internalType": "uint256",
          "name": "",
          "type": "uint256"
        }
      ],
      "name": "bidders",
      "outputs": [
        {
          "internalType": "address",
          "name": "addr",
          "type": "address"
        },
        {
          "internalType": "uint64",
          "name": "bid",
          "type": "uint64"
        }
      ],
      "stateMutability": "view",
      "type": "function"
    },
    {
      "inputs": [],
      "name": "claimPrize",
      "outputs": [],
      "stateMutability": "nonpayable",
      "type": "function"
    },
    {
      "inputs": [],
      "name": "keyOwner",
      "outputs": [
        {
          "internalType": "address",
          "name": "",
          "type": "address"
        }
      ],
      "stateMutability": "view",
      "type": "function"
    },
    {
      "inputs": [
        {
          "internalType": "address",
          "name": "_newOwner",
          "type": "address"
        }
      ],
      "name": "keyTransfer",
      "outputs": [],
      "stateMutability": "nonpayable",
      "type": "function"
    },
    {
      "inputs": [],
      "name": "timeout",
      "outputs": [
        {
          "internalType": "uint32",
          "name": "",
          "type": "uint32"
        }
      ],
      "stateMutability": "view",
      "type": "function"
    },
    {
      "inputs": [],
      "name": "topBidder",
      "outputs": [
        {
          "components": [
            {
              "internalType": "address",
              "name": "addr",
              "type": "address"
            },
            {
              "internalType": "uint64",
              "name": "bid",
              "type": "uint64"
            }
          ],
          "internalType": "struct AuctionHouse.Bidder",
          "name": "",
          "type": "tuple"
        }
      ],
      "stateMutability": "view",
      "type": "function"
    },
    {
      "inputs": [],
      "name": "withdrawFromAuction",
      "outputs": [],
      "stateMutability": "nonpayable",
      "type": "function"
    },
    {
      "stateMutability": "payable",
      "type": "receive"
    }
  ],
  "bytecode": {
    "object": "0x60a06040526000608081905280546001600160a01b03191690556001805463ffffffff19164263ffffffff16179055610040336706f05b59d3b20000610045565b6100d7565b604080518082019091526001600160a01b0392831681526001600160401b03918216602082019081526002805460018101825560009190915291517f405787fa12a823e0f2b7631cc41b3ba8828b3321ca811111fa75cd3aa3bb5ace90920180549151909316600160a01b02600160a01b600160e01b0319929094166001600160a01b03199091161716919091179055565b6106ee806100e66000396000f3fe60806040526004361061007f5760003560e01c80637c5e38fd1161004e5780637c5e38fd146101a057806383914540146101c0578063b947efc6146101d5578063cff29dfd146101f757610124565b806301333f061461012957806363d82a6d1461015457806370740ac91461016957806370dea79a1461017e57610124565b366101245761008c610225565b6020015160020267ffffffffffffffff163467ffffffffffffffff16101580156100c757506100b9610225565b516001600160a01b03163314155b80156100e357503360009081526003602052604090205460ff16155b80156100f357506100f333610280565b156101225761010233346102e7565b6001805463ffffffff8082166301e1853e011663ffffffff199091161790555b005b600080fd5b34801561013557600080fd5b5061013e610225565b60405161014b919061067d565b60405180910390f35b34801561016057600080fd5b5061012261037b565b34801561017557600080fd5b50610122610496565b34801561018a57600080fd5b50610193610528565b60405161014b91906106a7565b3480156101ac57600080fd5b506101226101bb3660046105d7565b610534565b3480156101cc57600080fd5b5061019361056d565b3480156101e157600080fd5b506101ea610575565b60405161014b9190610620565b34801561020357600080fd5b50610217610212366004610605565b610584565b60405161014b929190610634565b61022d6105c0565b60028054600019810190811061023f57fe5b6000918252602091829020604080518082019091529101546001600160a01b0381168252600160a01b900467ffffffffffffffff1691810191909152919050565b600080826001600160a01b0316600060405161029b9061061d565b60006040518083038185875af1925050503d80600081146102d8576040519150601f19603f3d011682016040523d82523d6000602084013e6102dd565b606091505b5090949350505050565b604080518082019091526001600160a01b03928316815267ffffffffffffffff918216602082019081526002805460018101825560009190915291517f405787fa12a823e0f2b7631cc41b3ba8828b3321ca811111fa75cd3aa3bb5ace90920180549151909316600160a01b0267ffffffffffffffff60a01b19929094166001600160a01b03199091161716919091179055565b610383610225565b516001600160a01b0316331461039857600080fd5b60006103a2610225565b905060028054806103af57fe5b60008281526020808220600019908401810180546001600160e01b03191690559092019092558251908301516001600160a01b039091169060029067ffffffffffffffff160467ffffffffffffffff1660405161040b9061061d565b60006040518083038185875af1925050503d8060008114610448576040519150601f19603f3d011682016040523d82523d6000602084013e61044d565b606091505b5050905080156104925781516001600160a01b03166000908152600360205260408082208054600160ff19918216811790925532845291909220805490911690911790555b5050565b61049e610225565b516001600160a01b031633146104b357600080fd5b60015463ffffffff90811642909116116104e85760405162461bcd60e51b81526004016104df90610657565b60405180910390fd5b6000546001600160a01b0316156104fe57600080fd5b610506610225565b51600080546001600160a01b0319166001600160a01b03909216919091179055565b60015463ffffffff1681565b6000546001600160a01b0316331461054b57600080fd5b600080546001600160a01b0319166001600160a01b0392909216919091179055565b6301e1853e81565b6000546001600160a01b031690565b6002818154811061059457600080fd5b6000918252602090912001546001600160a01b0381169150600160a01b900467ffffffffffffffff1682565b604080518082019091526000808252602082015290565b6000602082840312156105e8578081fd5b81356001600160a01b03811681146105fe578182fd5b9392505050565b600060208284031215610616578081fd5b5035919050565b90565b6001600160a01b0391909116815260200190565b6001600160a01b0392909216825267ffffffffffffffff16602082015260400190565b6020808252600c908201526b14dd1a5b1b081b1bd8dad95960a21b604082015260600190565b81516001600160a01b0316815260209182015167ffffffffffffffff169181019190915260400190565b63ffffffff9190911681526020019056fea26469706673582212207843e861468c981a82ec95178fd4b428f5a4a7574bfc5a0a29fe53ed14e2039c64736f6c63430007060033",
    "linkReferences": {}
  },
  "methodIdentifiers": {
    "YEAR()": "83914540",
    "bidders(uint256)": "cff29dfd",
    "claimPrize()": "70740ac9",
    "keyOwner()": "b947efc6",
    "keyTransfer(address)": "7c5e38fd",
    "timeout()": "70dea79a",
    "topBidder()": "01333f06",
    "withdrawFromAuction()": "63d82a6d"
  },
  "id": 0
}