{
  "abi": [
    {
      "inputs": [],
      "stateMutability": "nonpayable",
      "type": "constructor"
    },
    {
      "inputs": [],
      "name": "claimContent",
      "outputs": [],
      "stateMutability": "nonpayable",
      "type": "function"
    },
    {
      "inputs": [],
      "name": "isUnlocked",
      "outputs": [
        {
          "internalType": "bool",
          "name": "",
          "type": "bool"
        }
      ],
      "stateMutability": "view",
      "type": "function"
    },
    {
      "inputs": [],
      "name": "mapHolder",
      "outputs": [
        {
          "internalType": "address",
          "name": "",
          "type": "address"
        }
      ],
      "stateMutability": "view",
      "type": "function"
    },
    {
      "inputs": [],
      "name": "nonce",
      "outputs": [
        {
          "internalType": "uint256",
          "name": "",
          "type": "uint256"
        }
      ],
      "stateMutability": "view",
      "type": "function"
    },
    {
      "inputs": [],
      "name": "owner",
      "outputs": [
        {
          "internalType": "address",
          "name": "",
          "type": "address"
        }
      ],
      "stateMutability": "view",
      "type": "function"
    },
    {
      "inputs": [
        {
          "internalType": "bytes16",
          "name": "_password",
          "type": "bytes16"
        }
      ],
      "name": "unlock",
      "outputs": [],
      "stateMutability": "nonpayable",
      "type": "function"
    }
  ],
  "bytecode": {
    "object": "0x608060405234801561001057600080fd5b50600180546001600160a01b0319163317905560408051424060208201520160408051601f198184030181528282528051602091820120600255820190523090819052600080546001600160a01b03191690911790556103ee806100756000396000f3fe608060405234801561001057600080fd5b50600436106100625760003560e01c8063371144cd146100675780635084bf29146100715780638380edb71461009b5780638da5cb5b146100b8578063affed0e0146100cb578063e1afb08c146100e2575b600080fd5b61006f6100f5565b005b6000546001600160a01b03165b6040516001600160a01b0390911681526020015b60405180910390f35b6004546100a89060ff1681565b6040519015158152602001610092565b60015461007e906001600160a01b031681565b6100d460035481565b604051908152602001610092565b61006f6100f0366004610301565b610118565b60045460ff1661010457600080fd5b600080546001600160a01b03191633179055565b6000604061012461023a565b6001600160c01b031916901c608090811c915082901c81810361017e5760405162461bcd60e51b815260206004820152600d60248201526c10d85cd9480c4819985a5b1959609a1b60448201526064015b60405180910390fd5b816fffffffffffffffffffffffffffffffff168167ffffffffffffffff16146101d95760405162461bcd60e51b815260206004820152600d60248201526c10d85cd9480c8819985a5b1959609a1b6044820152606401610175565b60015467ffffffffffffffff1660c084901c146102285760405162461bcd60e51b815260206004820152600d60248201526c10d85cd9480cc819985a5b1959609a1b6044820152606401610175565b50506004805460ff1916600117905550565b60008061025b61024b60024261033b565b610256906001610373565b6102a0565b9050600061026960026102a0565b6002549290921860801c91909118609081901b6001600160d01b03191660609190911b67ffffffffffffffff60a01b161792915050565b6003546000906102b0834361038c565b6102bb919040610373565b6040516020016102cd91815260200190565b60408051601f1981840301815291905280516020909101206003805491925060006102f78361039f565b9190505550919050565b60006020828403121561031357600080fd5b81356fffffffffffffffffffffffffffffffff198116811461033457600080fd5b9392505050565b60008261035857634e487b7160e01b600052601260045260246000fd5b500690565b634e487b7160e01b600052601160045260246000fd5b808201808211156103865761038661035d565b92915050565b818103818111156103865761038661035d565b6000600182016103b1576103b161035d565b506001019056fea2646970667358221220628986d9fb8dfea1b2ff8eb4dfed86ae472b553d6d6200ae78d6a2bc7320d86c64736f6c63430008140033",
    "linkReferences": {}
  },
  "methodIdentifiers": {
    "claimContent()": "371144cd",
    "isUnlocked()": "8380edb7",
    "mapHolder()": "5084bf29",
    "nonce()": "affed0e0",
    "owner()": "8da5cb5b",
    "unlock(bytes16)": "e1afb08c"
  },
  "id": 22
}