{
  "abi": [
    {
      "inputs": [],
      "stateMutability": "nonpayable",
      "type": "constructor"
    },
    {
      "inputs": [],
      "name": "YOUR_CHALLENGE_CONTRACT_ADDRESS",
      "outputs": [
        {
          "internalType": "address",
          "name": "",
          "type": "address"
        }
      ],
      "stateMutability": "view",
      "type": "function"
    },
    {
      "inputs": [],
      "name": "attack2",
      "outputs": [],
      "stateMutability": "nonpayable",
      "type": "function"
    },
    {
      "inputs": [
        {
          "internalType": "address",
          "name": "account",
          "type": "address"
        }
      ],
      "name": "balanceOf",
      "outputs": [
        {
          "internalType": "uint256",
          "name": "",
          "type": "uint256"
        }
      ],
      "stateMutability": "view",
      "type": "function"
    },
    {
      "inputs": [],
      "name": "creature",
      "outputs": [
        {
          "internalType": "contract SilverCoin",
          "name": "",
          "type": "address"
        }
      ],
      "stateMutability": "view",
      "type": "function"
    },
    {
      "inputs": [],
      "name": "shop",
      "outputs": [
        {
          "internalType": "contract Shop",
          "name": "",
          "type": "address"
        }
      ],
      "stateMutability": "view",
      "type": "function"
    },
    {
      "inputs": [],
      "name": "source",
      "outputs": [
        {
          "internalType": "address",
          "name": "",
          "type": "address"
        }
      ],
      "stateMutability": "view",
      "type": "function"
    }
  ],
  "bytecode": {
    "object": "0x6080604052600080546001600160a01b031990811673894cefb5170871144c8fa937d28634c8f7f837a91790915560018054909116730a107cda0c45b7004e0dc22db9e261aba666843217905534801561005857600080fd5b50600280546001600160a01b031990811673cc3a130d38849f67985a3e03ee98754b1dd5ac6717909155600054600380549092166001600160a01b0391909116179055610400806100aa6000396000f3fe608060405234801561001057600080fd5b50600436106100625760003560e01c80630881fa0d146100675780635fb95d181461008b57806367e828bf1461009357806370a082311461009b5780639fcec698146100d3578063dac13f6d146100dd575b600080fd5b61006f6100e5565b604080516001600160a01b039092168252519081900360200190f35b61006f6100f4565b61006f610103565b6100c1600480360360208110156100b157600080fd5b50356001600160a01b0316610112565b60408051918252519081900360200190f35b6100db610195565b005b61006f6103bb565b6003546001600160a01b031681565b6000546001600160a01b031681565b6001546001600160a01b031681565b600254604080516370a0823160e01b81526001600160a01b038481166004830152915160009392909216916370a0823191602480820192602092909190829003018186803b15801561016357600080fd5b505afa158015610177573d6000803e3d6000fd5b505050506040513d602081101561018d57600080fd5b505192915050565b6002546001546040805163095ea7b360e01b81526001600160a01b03928316600482015263017d784060248201529051919092169163095ea7b39160448083019260209291908290030181600087803b1580156101f157600080fd5b505af1158015610205573d6000803e3d6000fd5b505050506040513d602081101561021b57600080fd5b5050600254600080546040805163095ea7b360e01b81526001600160a01b03928316600482015263017d784060248201529051919093169263095ea7b39260448083019360209390929083900390910190829087803b15801561027d57600080fd5b505af1158015610291573d6000803e3d6000fd5b505050506040513d60208110156102a757600080fd5b50506002546001546040805163a9059cbb60e01b81526001600160a01b03928316600482015263017d784060248201529051919092169163a9059cbb9160448083019260209291908290030181600087803b15801561030557600080fd5b505af1158015610319573d6000803e3d6000fd5b505050506040513d602081101561032f57600080fd5b50506002546001546040805163a9059cbb60e01b81526001600160a01b03928316600482015263017d784060248201529051919092169163a9059cbb9160448083019260209291908290030181600087803b15801561038d57600080fd5b505af11580156103a1573d6000803e3d6000fd5b505050506040513d60208110156103b757600080fd5b5050565b6002546001600160a01b03168156fea26469706673582212206052d91027a828fbe78f80fd2bb60f3b2111c56702017752b5ea225e58b23c8964736f6c63430007060033",
    "linkReferences": {}
  },
  "methodIdentifiers": {
    "YOUR_CHALLENGE_CONTRACT_ADDRESS()": "5fb95d18",
    "attack2()": "9fcec698",
    "balanceOf(address)": "70a08231",
    "creature()": "dac13f6d",
    "shop()": "0881fa0d",
    "source()": "67e828bf"
  },
  "id": 0
}