{
  "abi": [
    {
      "inputs": [],
      "stateMutability": "nonpayable",
      "type": "constructor"
    },
    {
      "inputs": [],
      "name": "attack2",
      "outputs": [],
      "stateMutability": "nonpayable",
      "type": "function"
    },
    {
      "inputs": [
        {
          "internalType": "address",
          "name": "account",
          "type": "address"
        }
      ],
      "name": "balanceOf",
      "outputs": [
        {
          "internalType": "uint256",
          "name": "",
          "type": "uint256"
        }
      ],
      "stateMutability": "view",
      "type": "function"
    },
    {
      "inputs": [],
      "name": "creature",
      "outputs": [
        {
          "internalType": "contract SilverCoin",
          "name": "",
          "type": "address"
        }
      ],
      "stateMutability": "view",
      "type": "function"
    },
    {
      "inputs": [],
      "name": "source",
      "outputs": [
        {
          "internalType": "address",
          "name": "",
          "type": "address"
        }
      ],
      "stateMutability": "view",
      "type": "function"
    }
  ],
  "bytecode": {
    "object": "0x6080604052600080546001600160a01b0319167360352bad99b50e66b7213cb6097ed17296ed449c17905534801561003657600080fd5b50600180546001600160a01b0319167360352bad99b50e66b7213cb6097ed17296ed449c1790556102248061006c6000396000f3fe608060405234801561001057600080fd5b506004361061004c5760003560e01c806367e828bf1461005157806370a08231146100755780639fcec698146100ad578063dac13f6d146100b7575b600080fd5b6100596100bf565b604080516001600160a01b039092168252519081900360200190f35b61009b6004803603602081101561008b57600080fd5b50356001600160a01b03166100ce565b60408051918252519081900360200190f35b6100b5610151565b005b6100596101df565b6000546001600160a01b031681565b600154604080516370a0823160e01b81526001600160a01b038481166004830152915160009392909216916370a0823191602480820192602092909190829003018186803b15801561011f57600080fd5b505afa158015610133573d6000803e3d6000fd5b505050506040513d602081101561014957600080fd5b505192915050565b600154600080546040805163a9059cbb60e01b81526001600160a01b03928316600482015263017d784060248201529051919093169263a9059cbb9260448083019360209390929083900390910190829087803b1580156101b157600080fd5b505af11580156101c5573d6000803e3d6000fd5b505050506040513d60208110156101db57600080fd5b5050565b6001546001600160a01b03168156fea2646970667358221220acf2cc176e1bbcc560ffe1efcf49c6d653303e28cd400aed82c24cf67d5b2b3864736f6c63430007060033",
    "linkReferences": {}
  },
  "methodIdentifiers": {
    "attack2()": "9fcec698",
    "balanceOf(address)": "70a08231",
    "creature()": "dac13f6d",
    "source()": "67e828bf"
  },
  "id": 0
}