{
  "abi": [
    {
      "inputs": [],
      "stateMutability": "nonpayable",
      "type": "constructor"
    },
    {
      "inputs": [],
      "name": "YOUR_CHALLENGE_CONTRACT_ADDRESS",
      "outputs": [
        {
          "internalType": "address",
          "name": "",
          "type": "address"
        }
      ],
      "stateMutability": "view",
      "type": "function"
    },
    {
      "inputs": [],
      "name": "attack2",
      "outputs": [],
      "stateMutability": "nonpayable",
      "type": "function"
    },
    {
      "inputs": [
        {
          "internalType": "address",
          "name": "account",
          "type": "address"
        }
      ],
      "name": "balanceOf",
      "outputs": [
        {
          "internalType": "uint256",
          "name": "",
          "type": "uint256"
        }
      ],
      "stateMutability": "view",
      "type": "function"
    },
    {
      "inputs": [],
      "name": "creature",
      "outputs": [
        {
          "internalType": "contract SilverCoin",
          "name": "",
          "type": "address"
        }
      ],
      "stateMutability": "view",
      "type": "function"
    },
    {
      "inputs": [],
      "name": "source",
      "outputs": [
        {
          "internalType": "address",
          "name": "",
          "type": "address"
        }
      ],
      "stateMutability": "view",
      "type": "function"
    }
  ],
  "bytecode": {
    "object": "0x6080604052600080546001600160a01b0319908116738ee01e91ea96ca640a68410b315700f1fb0cc5341790915560018054909116731d90daff0cbc880dfb579a985b17a17b4780941417905534801561005857600080fd5b50604051610065906100a7565b604051809103906000f080158015610081573d6000803e3d6000fd5b50600280546001600160a01b0319166001600160a01b03929092169190911790556100b4565b610b1e8061030583390190565b610242806100c36000396000f3fe608060405234801561001057600080fd5b50600436106100575760003560e01c80635fb95d181461005c57806367e828bf1461008057806370a08231146100885780639fcec698146100c0578063dac13f6d146100ca575b600080fd5b6100646100d2565b604080516001600160a01b039092168252519081900360200190f35b6100646100e1565b6100ae6004803603602081101561009e57600080fd5b50356001600160a01b03166100f0565b60408051918252519081900360200190f35b6100c8610173565b005b6100646101fd565b6000546001600160a01b031681565b6001546001600160a01b031681565b600254604080516370a0823160e01b81526001600160a01b038481166004830152915160009392909216916370a0823191602480820192602092909190829003018186803b15801561014157600080fd5b505afa158015610155573d6000803e3d6000fd5b505050506040513d602081101561016b57600080fd5b505192915050565b6002546001546040805163a9059cbb60e01b81526001600160a01b03928316600482015263017d784060248201529051919092169163a9059cbb9160448083019260209291908290030181600087803b1580156101cf57600080fd5b505af11580156101e3573d6000803e3d6000fd5b505050506040513d60208110156101f957600080fd5b5050565b6002546001600160a01b03168156fea26469706673582212200167971330d41089b076a5f19d570659d4d652569c7ec4c55a406e690f98e8b064736f6c6343000706003360c0604052600b60808190526a53696c766572436f696e7360a81b60a090815261002c9160029190610131565b506040805180820190915260038082526253564360e81b60209092019182526100559181610131565b5034801561006257600080fd5b506100743366038d7ea4c68000610079565b6101d2565b6001600160a01b0382166100d4576040805162461bcd60e51b815260206004820152601f60248201527f45524332303a206d696e7420746f20746865207a65726f206164647265737300604482015290519081900360640190fd5b60048054820190556001600160a01b038216600081815260208181526040808320805486019055805185815290517fddf252ad1be2c89b69c2b068fc378daa952ba7f163c4a11628f55a4df523b3ef929181900390910190a35050565b828054600181600116156101000203166002900490600052602060002090601f01602090048101928261016757600085556101ad565b82601f1061018057805160ff19168380011785556101ad565b828001600101855582156101ad579182015b828111156101ad578251825591602001919060010190610192565b506101b99291506101bd565b5090565b5b808211156101b957600081556001016101be565b61093d806101e16000396000f3fe608060405234801561001057600080fd5b50600436106100a95760003560e01c8063395093511161007157806339509351146101c357806370a08231146101ef57806395d89b4114610215578063a457c2d71461021d578063a9059cbb14610249578063dd62ed3e14610275576100a9565b806306fdde03146100ae578063095ea7b31461012b57806318160ddd1461016b57806323b872dd14610185578063313ce567146101bb575b600080fd5b6100b66102a3565b6040805160208082528351818301528351919283929083019185019080838360005b838110156100f05781810151838201526020016100d8565b50505050905090810190601f16801561011d5780820380516001836020036101000a031916815260200191505b509250505060405180910390f35b6101576004803603604081101561014157600080fd5b506001600160a01b03813516906020013561032e565b604080519115158252519081900360200190f35b610173610350565b60408051918252519081900360200190f35b6101576004803603606081101561019b57600080fd5b506001600160a01b03813581169160208101359091169060400135610356565b610173610384565b610157600480360360408110156101d957600080fd5b506001600160a01b038135169060200135610389565b6101736004803603602081101561020557600080fd5b50356001600160a01b03166103ac565b6100b66103c7565b6101576004803603604081101561023357600080fd5b506001600160a01b038135169060200135610422565b6101576004803603604081101561025f57600080fd5b506001600160a01b038135169060200135610489565b6101736004803603604081101561028b57600080fd5b506001600160a01b03813581169160200135166104a1565b6002805460408051602060018416156101000260001901909316849004601f810184900484028201840190925281815292918301828280156103265780601f106102fb57610100808354040283529160200191610326565b820191906000526020600020905b81548152906001019060200180831161030957829003601f168201915b505050505081565b6000806103396104cc565b90506103468185856104d0565b5060019392505050565b60045481565b6000806103616104cc565b905061036e8582856105bc565b61037985858561063b565b506001949350505050565b601290565b6000806103946104cc565b90506103468185856103a685896104a1565b016104d0565b6001600160a01b031660009081526020819052604090205490565b6003805460408051602060026001851615610100026000190190941693909304601f810184900484028201840190925281815292918301828280156103265780601f106102fb57610100808354040283529160200191610326565b60008061042d6104cc565b9050600061043b82866104a1565b90508381101561047c5760405162461bcd60e51b81526004018080602001828103825260258152602001806108e36025913960400191505060405180910390fd5b61037982868684036104d0565b6000806104946104cc565b9050610346818585610786565b6001600160a01b03918216600090815260016020908152604080832093909416825291909152205490565b3390565b6001600160a01b0383166105155760405162461bcd60e51b81526004018080602001828103825260248152602001806108bf6024913960400191505060405180910390fd5b6001600160a01b03821661055a5760405162461bcd60e51b81526004018080602001828103825260228152602001806108526022913960400191505060405180910390fd5b6001600160a01b03808416600081815260016020908152604080832094871680845294825291829020859055815185815291517f8c5be1e5ebec7d5bd14f71427d1e84f3dd0314c0f7b2291e5b200ac8c7c3b9259281900390910190a3505050565b60006105c884846104a1565b905060001981146106355781811015610628576040805162461bcd60e51b815260206004820152601d60248201527f45524332303a20696e73756666696369656e7420616c6c6f77616e6365000000604482015290519081900360640190fd5b61063584848484036104d0565b50505050565b6001600160a01b0383166106805760405162461bcd60e51b815260040180806020018281038252602581526020018061089a6025913960400191505060405180910390fd5b6001600160a01b0382166106c55760405162461bcd60e51b815260040180806020018281038252602381526020018061082f6023913960400191505060405180910390fd5b6001600160a01b0383166000908152602081905260409020548181101561071d5760405162461bcd60e51b81526004018080602001828103825260268152602001806108746026913960400191505060405180910390fd5b6001600160a01b038085166000818152602081815260408083208787039055938716808352918490208054870190558351868152935191937fddf252ad1be2c89b69c2b068fc378daa952ba7f163c4a11628f55a4df523b3ef929081900390910190a350505050565b6001600160a01b0383166107cb5760405162461bcd60e51b815260040180806020018281038252602581526020018061089a6025913960400191505060405180910390fd5b6001600160a01b0382166108105760405162461bcd60e51b815260040180806020018281038252602381526020018061082f6023913960400191505060405180910390fd5b6001600160a01b03831660009081526020819052604090205461071d56fe45524332303a207472616e7366657220746f20746865207a65726f206164647265737345524332303a20617070726f766520746f20746865207a65726f206164647265737345524332303a207472616e7366657220616d6f756e7420657863656564732062616c616e636545524332303a207472616e736665722066726f6d20746865207a65726f206164647265737345524332303a20617070726f76652066726f6d20746865207a65726f206164647265737345524332303a2064656372656173656420616c6c6f77616e63652062656c6f77207a65726fa26469706673582212209e8d60de4ab87e0c11280d3ae6d10400fffec905b9a0c95f03b6a45e501e4dad64736f6c63430007060033",
    "linkReferences": {}
  },
  "methodIdentifiers": {
    "YOUR_CHALLENGE_CONTRACT_ADDRESS()": "5fb95d18",
    "attack2()": "9fcec698",
    "balanceOf(address)": "70a08231",
    "creature()": "dac13f6d",
    "source()": "67e828bf"
  },
  "id": 0
}