{
  "abi": [
    {
      "inputs": [
        {
          "internalType": "address[]",
          "name": "members",
          "type": "address[]"
        }
      ],
      "stateMutability": "nonpayable",
      "type": "constructor"
    },
    {
      "inputs": [],
      "name": "ECDSAInvalidSignature",
      "type": "error"
    },
    {
      "inputs": [
        {
          "internalType": "uint256",
          "name": "length",
          "type": "uint256"
        }
      ],
      "name": "ECDSAInvalidSignatureLength",
      "type": "error"
    },
    {
      "inputs": [
        {
          "internalType": "bytes32",
          "name": "s",
          "type": "bytes32"
        }
      ],
      "name": "ECDSAInvalidSignatureS",
      "type": "error"
    },
    {
      "inputs": [
        {
          "internalType": "bytes[]",
          "name": "signatures",
          "type": "bytes[]"
        },
        {
          "internalType": "address",
          "name": "to",
          "type": "address"
        },
        {
          "internalType": "address payable",
          "name": "crowdfundingContract",
          "type": "address"
        }
      ],
      "name": "closeCampaign",
      "outputs": [],
      "stateMutability": "nonpayable",
      "type": "function"
    },
    {
      "inputs": [
        {
          "internalType": "uint256",
          "name": "",
          "type": "uint256"
        }
      ],
      "name": "councilMembers",
      "outputs": [
        {
          "internalType": "address",
          "name": "",
          "type": "address"
        }
      ],
      "stateMutability": "view",
      "type": "function"
    }
  ],
  "bytecode": {
    "object": "0x608060405234801561001057600080fd5b506040516109de3803806109de83398101604081905261002f91610103565b8051600b1461003d57600080fd5b8051610050906000906020840190610057565b50506101c7565b8280548282559060005260206000209081019282156100ac579160200282015b828111156100ac57825182546001600160a01b0319166001600160a01b03909116178255602090920191600190910190610077565b506100b89291506100bc565b5090565b5b808211156100b857600081556001016100bd565b634e487b7160e01b600052604160045260246000fd5b80516001600160a01b03811681146100fe57600080fd5b919050565b6000602080838503121561011657600080fd5b82516001600160401b038082111561012d57600080fd5b818501915085601f83011261014157600080fd5b815181811115610153576101536100d1565b8060051b604051601f19603f83011681018181108582111715610178576101786100d1565b60405291825284820192508381018501918883111561019657600080fd5b938501935b828510156101bb576101ac856100e7565b8452938501939285019261019b565b98975050505050505050565b610808806101d66000396000f3fe608060405234801561001057600080fd5b50600436106100365760003560e01c8063317cabcf1461003b578063751a6a3414610050575b600080fd5b61004e61004936600461062c565b61007f565b005b61006361005e366004610766565b610335565b6040516001600160a01b03909116815260200160405180910390f35b60408051600680825260e082019092526000916020820160c08036833701905050604080516001600160a01b03861660208201529192506000910160405160208183030381529060405280519060200120905060005b85518110156102d257600061013a8783815181106100f5576100f561077f565b6020026020010151610134857f19457468657265756d205369676e6564204d6573736167653a0a3332000000006000908152601c91909152603c902090565b9061035f565b90506001600160a01b03811661018b5760405162461bcd60e51b8152602060048201526011602482015270496e76616c6964207369676e617475726560781b60448201526064015b60405180910390fd5b6101ef60008054806020026020016040519081016040528092919081815260200182805480156101e457602002820191906000526020600020905b81546001600160a01b031681526001909101906020018083116101c6575b50505050508261038b565b6102305760405162461bcd60e51b81526020600482015260126024820152712737ba1031b7bab731b4b61036b2b6b132b960711b6044820152606401610182565b61023a848261038b565b1561027d5760405162461bcd60e51b81526020600482015260136024820152724475706c6963617465207369676e617475726560681b6044820152606401610182565b808483815181106102905761029061077f565b60200260200101906001600160a01b031690816001600160a01b03168152505060058211156102bf57506102d2565b50806102ca81610795565b9150506100d5565b506040516367f5f32d60e01b81526001600160a01b0385811660048301528416906367f5f32d90602401600060405180830381600087803b15801561031657600080fd5b505af115801561032a573d6000803e3d6000fd5b505050505050505050565b6000818154811061034557600080fd5b6000918252602090912001546001600160a01b0316905081565b60008060008061036f86866103f0565b92509250925061037f828261043d565b50909150505b92915050565b6000805b83518110156103e657826001600160a01b03168482815181106103b4576103b461077f565b60200260200101516001600160a01b0316036103d4576001915050610385565b806103de81610795565b91505061038f565b5060009392505050565b6000806000835160410361042a5760208401516040850151606086015160001a61041c888285856104fa565b955095509550505050610436565b50508151600091506002905b9250925092565b6000826003811115610451576104516107bc565b0361045a575050565b600182600381111561046e5761046e6107bc565b0361048c5760405163f645eedf60e01b815260040160405180910390fd5b60028260038111156104a0576104a06107bc565b036104c15760405163fce698f760e01b815260048101829052602401610182565b60038260038111156104d5576104d56107bc565b036104f6576040516335e2f38360e21b815260048101829052602401610182565b5050565b600080807f7fffffffffffffffffffffffffffffff5d576e7357a4501ddfe92f46681b20a084111561053557506000915060039050826105bf565b604080516000808252602082018084528a905260ff891692820192909252606081018790526080810186905260019060a0016020604051602081039080840390855afa158015610589573d6000803e3d6000fd5b5050604051601f1901519150506001600160a01b0381166105b5575060009250600191508290506105bf565b9250600091508190505b9450945094915050565b634e487b7160e01b600052604160045260246000fd5b604051601f8201601f1916810167ffffffffffffffff81118282101715610608576106086105c9565b604052919050565b80356001600160a01b038116811461062757600080fd5b919050565b60008060006060848603121561064157600080fd5b833567ffffffffffffffff8082111561065957600080fd5b818601915086601f83011261066d57600080fd5b8135602082821115610681576106816105c9565b8160051b6106908282016105df565b928352848101820192828101908b8511156106aa57600080fd5b83870192505b8483101561073b578235868111156106c85760008081fd5b8701603f81018d136106da5760008081fd5b848101356040888211156106f0576106f06105c9565b610702601f8301601f191688016105df565b8281528f828486010111156107175760008081fd5b828285018983013760009281018801929092525083525091830191908301906106b0565b985061074b915050888201610610565b95505050505061075d60408501610610565b90509250925092565b60006020828403121561077857600080fd5b5035919050565b634e487b7160e01b600052603260045260246000fd5b6000600182016107b557634e487b7160e01b600052601160045260246000fd5b5060010190565b634e487b7160e01b600052602160045260246000fdfea264697066735822122053eb15b4d95bdc4afa450572e3a7768b2b161da0297ca36886d145af041d58bb64736f6c63430008120033",
    "linkReferences": {}
  },
  "methodIdentifiers": {
    "closeCampaign(bytes[],address,address)": "317cabcf",
    "councilMembers(uint256)": "751a6a34"
  },
  "id": 21
}