{
  "abi": [
    {
      "inputs": [
        {
          "internalType": "address",
          "name": "_silverCoinAddress",
          "type": "address"
        }
      ],
      "stateMutability": "nonpayable",
      "type": "constructor"
    },
    {
      "inputs": [
        {
          "internalType": "uint256",
          "name": "_index",
          "type": "uint256"
        }
      ],
      "name": "buyItem",
      "outputs": [],
      "stateMutability": "nonpayable",
      "type": "function"
    },
    {
      "inputs": [
        {
          "internalType": "uint256",
          "name": "",
          "type": "uint256"
        }
      ],
      "name": "items",
      "outputs": [
        {
          "internalType": "string",
          "name": "name",
          "type": "string"
        },
        {
          "internalType": "uint256",
          "name": "price",
          "type": "uint256"
        },
        {
          "internalType": "address",
          "name": "owner",
          "type": "address"
        }
      ],
      "stateMutability": "view",
      "type": "function"
    },
    {
      "inputs": [
        {
          "internalType": "uint256",
          "name": "_index",
          "type": "uint256"
        }
      ],
      "name": "viewItem",
      "outputs": [
        {
          "internalType": "string",
          "name": "",
          "type": "string"
        },
        {
          "internalType": "uint256",
          "name": "",
          "type": "uint256"
        },
        {
          "internalType": "address",
          "name": "",
          "type": "address"
        }
      ],
      "stateMutability": "view",
      "type": "function"
    }
  ],
  "bytecode": {
    "object": "0x608060405234801561001057600080fd5b5060405161088d38038061088d8339818101604052602081101561003357600080fd5b5051600180546001600160a01b0383166001600160a01b03199091161781556040805160a0810182526010606082019081526f4469616d6f6e64204e65636b6c61636560801b60808301528152620f42406020828101919091523092820192909252600080549384018155805280518051919360030260008051602061086d83398151915201926100c99284929091019061024c565b50602082810151600180840191909155604093840151600290930180546001600160a01b039094166001600160a01b031990941693909317909255825160a081018452600d606082019081526c416e6369656e742053746f6e6560981b6080830152815262011170818301523093810193909352600080549283018155805282518051600390930260008051602061086d833981519152019261016f928492019061024c565b50602082810151600180840191909155604093840151600290930180546001600160a01b039094166001600160a01b031990941693909317909255825160a081018452600a6060820190815269476f6c64656e204b657960b01b6080830152815263017d7840818301523093810193909352600080549283018155805282518051600390930260008051602061086d8339815191520192610213928492019061024c565b5060208201516001820155604090910151600290910180546001600160a01b0319166001600160a01b03909216919091179055506102ed565b828054600181600116156101000203166002900490600052602060002090601f01602090048101928261028257600085556102c8565b82601f1061029b57805160ff19168380011785556102c8565b828001600101855582156102c8579182015b828111156102c85782518255916020019190600101906102ad565b506102d49291506102d8565b5090565b5b808211156102d457600081556001016102d9565b610571806102fc6000396000f3fe608060405234801561001057600080fd5b50600436106100415760003560e01c80636f7b015514610046578063bfb231d2146100f2578063e7fb74c71461010f575b600080fd5b6100636004803603602081101561005c57600080fd5b503561012e565b6040518080602001848152602001836001600160a01b03168152602001828103825285818151815260200191508051906020019080838360005b838110156100b557818101518382015260200161009d565b50505050905090810190601f1680156100e25780820380516001836020036101000a031916815260200191505b5094505050505060405180910390f35b6100636004803603602081101561010857600080fd5b5035610234565b61012c6004803603602081101561012557600080fd5b50356102fd565b005b60606000806000848154811061014057fe5b90600052602060002090600302016000016000858154811061015e57fe5b9060005260206000209060030201600101546000868154811061017d57fe5b60009182526020918290206002600390920201810154845460408051601f600019600185161561010002019093169490940491820185900485028401850190528083526001600160a01b03909116928591908301828280156102205780601f106101f557610100808354040283529160200191610220565b820191906000526020600020905b81548152906001019060200180831161020357829003601f168201915b505050505092509250925092509193909250565b6000818154811061024457600080fd5b60009182526020918290206003919091020180546040805160026001841615610100026000190190931692909204601f8101859004850283018501909152808252919350918391908301828280156102dd5780601f106102b2576101008083540402835291602001916102dd565b820191906000526020600020905b8154815290600101906020018083116102c057829003601f168201915b5050505060018301546002909301549192916001600160a01b0316905083565b600080828154811061030b57fe5b600091825260209182902060408051600393909302909101805460026001821615610100026000190190911604601f81018590049094028301608090810190925260608301848152929390928492909184918401828280156103ae5780601f10610383576101008083540402835291602001916103ae565b820191906000526020600020905b81548152906001019060200180831161039157829003601f168201915b5050509183525050600182015460208201526002909101546001600160a01b0390811660409283015290820151919250163014610426576040805162461bcd60e51b8152602060048201526011602482015270125d195b48185b1c9958591e481cdbdb19607a1b604482015290519081900360640190fd5b600154602080830151604080516323b872dd60e01b81523360048201523060248201526044810192909252516000936001600160a01b0316926323b872dd926064808201939182900301818787803b15801561048157600080fd5b505af1158015610495573d6000803e3d6000fd5b505050506040513d60208110156104ab57600080fd5b50519050806104f3576040805162461bcd60e51b815260206004820152600f60248201526e5061796d656e74206661696c65642160881b604482015290519081900360640190fd5b336000848154811061050157fe5b906000526020600020906003020160020160006101000a8154816001600160a01b0302191690836001600160a01b0316021790555050505056fea264697066735822122097185b310bd4191d977564bcaa1be50237d1b30af4f1d65566e4cb8024c6350664736f6c63430007060033290decd9548b62a8d60345a988386fc84ba6bc95484008f6362f93160ef3e563",
    "linkReferences": {}
  },
  "methodIdentifiers": {
    "buyItem(uint256)": "e7fb74c7",
    "items(uint256)": "bfb231d2",
    "viewItem(uint256)": "6f7b0155"
  },
  "id": 1
}