{
  "abi": [
    {
      "inputs": [],
      "stateMutability": "payable",
      "type": "constructor"
    },
    {
      "inputs": [],
      "name": "aggro",
      "outputs": [
        {
          "internalType": "address",
          "name": "",
          "type": "address"
        }
      ],
      "stateMutability": "view",
      "type": "function"
    },
    {
      "inputs": [
        {
          "internalType": "uint256",
          "name": "_damage",
          "type": "uint256"
        }
      ],
      "name": "attack",
      "outputs": [],
      "stateMutability": "nonpayable",
      "type": "function"
    },
    {
      "inputs": [],
      "name": "lifePoints",
      "outputs": [
        {
          "internalType": "uint256",
          "name": "",
          "type": "uint256"
        }
      ],
      "stateMutability": "view",
      "type": "function"
    },
    {
      "inputs": [],
      "name": "loot",
      "outputs": [],
      "stateMutability": "nonpayable",
      "type": "function"
    }
  ],
  "bytecode": {
    "object": "0x60806040526103e8600055610225806100196000396000f3fe608060405234801561001057600080fd5b506004361061004c5760003560e01c806341c2132f1461005157806364dd891a146100815780639b7b2ab014610096578063d21d2cd11461009e575b600080fd5b600154610064906001600160a01b031681565b6040516001600160a01b0390911681526020015b60405180910390f35b61009461008f3660046101af565b6100b5565b005b61009461012f565b6100a760005481565b604051908152602001610078565b6001546001600160a01b03166100d857600180546001600160a01b031916331790555b3332141580156100f357506001546001600160a01b03163314155b15610114578060008082825461010991906101c8565b9091555061012c9050565b600080600082825461012691906101c8565b90915550505b50565b600054156101835760405162461bcd60e51b815260206004820152601860248201527f4372656174757265206973207374696c6c20616c697665210000000000000000604482015260640160405180910390fd5b60405133904780156108fc02916000818181858888f1935050505015801561012c573d6000803e3d6000fd5b6000602082840312156101c157600080fd5b5035919050565b818103818111156101e957634e487b7160e01b600052601160045260246000fd5b9291505056fea26469706673582212208979c8159d5a4d8b3bce6c49f7d521ece81de838669e9920bc12119c15f34f3964736f6c63430008140033",
    "linkReferences": {}
  },
  "methodIdentifiers": {
    "aggro()": "41c2132f",
    "attack(uint256)": "64dd891a",
    "lifePoints()": "d21d2cd1",
    "loot()": "9b7b2ab0"
  },
  "id": 21
}