{
  "abi": [
    {
      "inputs": [
        {
          "internalType": "string[]",
          "name": "_users",
          "type": "string[]"
        },
        {
          "internalType": "string[]",
          "name": "_passwords",
          "type": "string[]"
        },
        {
          "internalType": "string[]",
          "name": "_itemNames",
          "type": "string[]"
        },
        {
          "internalType": "string[]",
          "name": "_itemOwners",
          "type": "string[]"
        },
        {
          "internalType": "uint8[]",
          "name": "_itemRarities",
          "type": "uint8[]"
        }
      ],
      "stateMutability": "payable",
      "type": "constructor"
    },
    {
      "inputs": [
        {
          "internalType": "string",
          "name": "username",
          "type": "string"
        },
        {
          "internalType": "string",
          "name": "password",
          "type": "string"
        }
      ],
      "name": "getLocker",
      "outputs": [],
      "stateMutability": "nonpayable",
      "type": "function"
    },
    {
      "inputs": [
        {
          "internalType": "enum Lockers.Rarity",
          "name": "",
          "type": "uint8"
        }
      ],
      "name": "price",
      "outputs": [
        {
          "internalType": "uint256",
          "name": "",
          "type": "uint256"
        }
      ],
      "stateMutability": "view",
      "type": "function"
    },
    {
      "inputs": [
        {
          "internalType": "string",
          "name": "name",
          "type": "string"
        },
        {
          "internalType": "string",
          "name": "owner",
          "type": "string"
        },
        {
          "internalType": "uint8",
          "name": "rarity",
          "type": "uint8"
        }
      ],
      "name": "putItem",
      "outputs": [],
      "stateMutability": "nonpayable",
      "type": "function"
    },
    {
      "inputs": [
        {
          "internalType": "string",
          "name": "name",
          "type": "string"
        },
        {
          "internalType": "string",
          "name": "password",
          "type": "string"
        }
      ],
      "name": "retrieveItem",
      "outputs": [],
      "stateMutability": "nonpayable",
      "type": "function"
    },
    {
      "inputs": [
        {
          "internalType": "string",
          "name": "name",
          "type": "string"
        },
        {
          "internalType": "string",
          "name": "password",
          "type": "string"
        }
      ],
      "name": "sellItem",
      "outputs": [],
      "stateMutability": "nonpayable",
      "type": "function"
    },
    {
      "inputs": [
        {
          "internalType": "string",
          "name": "name",
          "type": "string"
        },
        {
          "internalType": "string",
          "name": "to",
          "type": "string"
        },
        {
          "internalType": "string",
          "name": "password",
          "type": "string"
        }
      ],
      "name": "transferItem",
      "outputs": [],
      "stateMutability": "nonpayable",
      "type": "function"
    },
    {
      "inputs": [
        {
          "internalType": "string",
          "name": "_name",
          "type": "string"
        }
      ],
      "name": "viewItems",
      "outputs": [
        {
          "internalType": "string",
          "name": "",
          "type": "string"
        },
        {
          "internalType": "enum Lockers.Rarity",
          "name": "",
          "type": "uint8"
        }
      ],
      "stateMutability": "view",
      "type": "function"
    }
  ],
  "bytecode": {
    "object": "0x608060405260405162001a4138038062001a418339810160408190526200002691620004ad565b83518551146200003557600080fd5b8151835114801562000048575080518251145b6200005257600080fd5b60005b8551811015620000d0578481815181106200007457620000746200058e565b602002602001015160008783815181106200009357620000936200058e565b6020026020010151604051620000aa9190620005a4565b90815260200160405180910390209081620000c6919062000651565b5060010162000055565b5060005b8351811015620001f357600360405180606001604052808684815181106200010057620001006200058e565b602002602001015181526020018584815181106200012257620001226200058e565b602002602001015181526020018484815181106200014457620001446200058e565b602002602001015160ff1660038111156200016357620001636200071d565b60038111156200017757620001776200071d565b90528154600181018355600092835260209092208151919260030201908190620001a2908262000651565b5060208201516001820190620001b9908262000651565b50604082015160028201805460ff19166001836003811115620001e057620001e06200071d565b02179055505050806001019050620000d4565b50506002602052505060017fac33ff75c19e70fe83507db0d683fd3465c996598dc972688b7ace676c89077b555050600a7fe90b7bceb6e7df5418fb78d8ee546e97c83a08bbccc01a0644d599ccd2a7c2e05560647f679795a0195a1b76cdebb7c51d74e058aee92919b8c3389af86ef24535e8a28c556003600052670de0b6b3a76400007f88601476d11616a71c5be67555bd1dff4b1cbf21533d2669b768b61518cfe1c35562000733565b634e487b7160e01b600052604160045260246000fd5b604051601f8201601f191681016001600160401b0381118282101715620002e157620002e1620002a0565b604052919050565b60006001600160401b03821115620003055762000305620002a0565b5060051b60200190565b60005b838110156200032c57818101518382015260200162000312565b50506000910152565b6000601f83818401126200034857600080fd5b82516020620003616200035b83620002e9565b620002b6565b82815260059290921b850181019181810190878411156200038157600080fd5b8287015b84811015620004235780516001600160401b0380821115620003a75760008081fd5b818a0191508a603f830112620003bd5760008081fd5b85820151604082821115620003d657620003d6620002a0565b620003e9828b01601f19168901620002b6565b92508183528c81838601011115620004015760008081fd5b62000412828985018387016200030f565b505084525091830191830162000385565b50979650505050505050565b600082601f8301126200044157600080fd5b81516020620004546200035b83620002e9565b82815260059290921b840181019181810190868411156200047457600080fd5b8286015b84811015620004a257805160ff81168114620004945760008081fd5b835291830191830162000478565b509695505050505050565b600080600080600060a08688031215620004c657600080fd5b85516001600160401b0380821115620004de57600080fd5b620004ec89838a0162000335565b965060208801519150808211156200050357600080fd5b6200051189838a0162000335565b955060408801519150808211156200052857600080fd5b6200053689838a0162000335565b945060608801519150808211156200054d57600080fd5b6200055b89838a0162000335565b935060808801519150808211156200057257600080fd5b5062000581888289016200042f565b9150509295509295909350565b634e487b7160e01b600052603260045260246000fd5b60008251620005b88184602087016200030f565b9190910192915050565b600181811c90821680620005d757607f821691505b602082108103620005f857634e487b7160e01b600052602260045260246000fd5b50919050565b601f8211156200064c57600081815260208120601f850160051c81016020861015620006275750805b601f850160051c820191505b81811015620006485782815560010162000633565b5050505b505050565b81516001600160401b038111156200066d576200066d620002a0565b62000685816200067e8454620005c2565b84620005fe565b602080601f831160018114620006bd5760008415620006a45750858301515b600019600386901b1c1916600185901b17855562000648565b600085815260208120601f198616915b82811015620006ee57888601518255948401946001909101908401620006cd565b50858210156200070d5787850151600019600388901b60f8161c191681555b5050505050600190811b01905550565b634e487b7160e01b600052602160045260246000fd5b6112fe80620007436000396000f3fe608060405234801561001057600080fd5b506004361061007d5760003560e01c8063b2de1d641161005b578063b2de1d64146100d4578063b7fafcd7146100e7578063ceb2b20814610115578063f49fb0921461012857600080fd5b80630395c88f1461008257806319b67610146100975780631c6c0f80146100c1575b600080fd5b610095610090366004610cb9565b61013b565b005b6100aa6100a5366004610d25565b6102ae565b6040516100b8929190610dcd565b60405180910390f35b6100956100cf366004610cb9565b6104b3565b6100956100e2366004610e0d565b6105ad565b6101076100f5366004610ea7565b60026020526000908152604090205481565b6040519081526020016100b8565b610095610123366004610cb9565b61065f565b610095610136366004610ecf565b610aa0565b6000848460405161014d929190610f59565b9081526020016040518091039020805461016690610f69565b1590506101b05760405162461bcd60e51b81526020600482015260136024820152725573657220616c72656164792065786973747360681b60448201526064015b60405180910390fd5b6101d98484604051806040016040528060068152602001652b32b73237b960d11b815250610bc5565b156102365760405162461bcd60e51b815260206004820152602760248201527f4f6e6c792074686520747275652076656e646f722063616e207573652074686960448201526673206e616d652160c81b60648201526084016101a7565b81816000868660405161024a929190610f59565b90815260200160405180910390209182610265929190611008565b503360018585604051610279929190610f59565b90815260405190819003602001902080546001600160a01b03929092166001600160a01b031990921691909117905550505050565b60606000805b600354811015610476576103758585600384815481106102d6576102d66110c8565b906000526020600020906003020160000180546102f290610f69565b80601f016020809104026020016040519081016040528092919081815260200182805461031e90610f69565b801561036b5780601f106103405761010080835404028352916020019161036b565b820191906000526020600020905b81548152906001019060200180831161034e57829003601f168201915b5050505050610bc5565b15610466576003818154811061038d5761038d6110c8565b9060005260206000209060030201600101600382815481106103b1576103b16110c8565b906000526020600020906003020160020160009054906101000a900460ff168180546103dc90610f69565b80601f016020809104026020016040519081016040528092919081815260200182805461040890610f69565b80156104555780601f1061042a57610100808354040283529160200191610455565b820191906000526020600020905b81548152906001019060200180831161043857829003601f168201915b5050505050915092509250506104ac565b61046f816110de565b90506102b4565b5060405162461bcd60e51b815260206004820152600a6024820152694e6f537563684974656d60b01b60448201526064016101a7565b9250929050565b60005b6003548110156105a6576104d88585600384815481106102d6576102d66110c8565b156105965761052e83836000600385815481106104f7576104f76110c8565b90600052602060002090600302016001016040516105159190611105565b908152602001604051809103902080546102f290610f69565b61054a5760405162461bcd60e51b81526004016101a79061117b565b6003818154811061055d5761055d6110c8565b600091825260208220600390910201906105778282610c21565b610585600183016000610c21565b50600201805460ff191690556105a6565b61059f816110de565b90506104b6565b5050505050565b60005b600354811015610656576105d28787600384815481106102d6576102d66110c8565b15610646576105f183836000600385815481106104f7576104f76110c8565b61060d5760405162461bcd60e51b81526004016101a79061117b565b848460038381548110610622576106226110c8565b90600052602060002090600302016001019182610640929190611008565b50610656565b61064f816110de565b90506105b0565b50505050505050565b604080516060808201835280825260208201526000918101829052606060005b600354811015610924576106a18888600384815481106102d6576102d66110c8565b15610914576106c086866000600385815481106104f7576104f76110c8565b6106dc5760405162461bcd60e51b81526004016101a79061117b565b600381815481106106ef576106ef6110c8565b906000526020600020906003020160405180606001604052908160008201805461071890610f69565b80601f016020809104026020016040519081016040528092919081815260200182805461074490610f69565b80156107915780601f1061076657610100808354040283529160200191610791565b820191906000526020600020905b81548152906001019060200180831161077457829003601f168201915b505050505081526020016001820180546107aa90610f69565b80601f01602080910402602001604051908101604052809291908181526020018280546107d690610f69565b80156108235780601f106107f857610100808354040283529160200191610823565b820191906000526020600020905b81548152906001019060200180831161080657829003601f168201915b5050509183525050600282015460209091019060ff16600381111561084a5761084a610db7565b600381111561085b5761085b610db7565b81525050925060038181548110610874576108746110c8565b9060005260206000209060030201600101805461089090610f69565b80601f01602080910402602001604051908101604052809291908181526020018280546108bc90610f69565b80156109095780601f106108de57610100808354040283529160200191610909565b820191906000526020600020905b8154815290600101906020018083116108ec57829003601f168201915b505050505091508093505b61091d816110de565b905061067f565b5081515161096a5760405162461bcd60e51b8152602060048201526013602482015272125d195b48191bd95cc81b9bdd08195e1a5cdd606a1b60448201526064016101a7565b604051806040016040528060068152602001652b32b73237b960d11b815250826020018190525060006001826040516109a391906111aa565b908152604080519182900360200190912054908401516001600160a01b039091169060029060009060038111156109dc576109dc610db7565b60038111156109ed576109ed610db7565b81526020019081526020016000205460405160006040518083038185875af1925050503d8060008114610a3c576040519150601f19603f3d011682016040523d82523d6000602084013e610a41565b606091505b5050905080610a4f57600080fd5b60038481548110610a6257610a626110c8565b60009182526020822060039091020190610a7c8282610c21565b610a8a600183016000610c21565b50600201805460ff191690555050505050505050565b60038160ff1610610ab057600080fd5b6040805160806020601f88018190040282018101909252606081018681526003928291908990899081908501838280828437600092019190915250505090825250604080516020601f88018190048102820181019092528681529181019190879087908190840183828082843760009201919091525050509082525060200160ff84166003811115610b4457610b44610db7565b6003811115610b5557610b55610db7565b90528154600181018355600092835260209092208151919260030201908190610b7e90826111c6565b5060208201516001820190610b9390826111c6565b50604082015160028201805460ff19166001836003811115610bb757610bb7610db7565b021790555050505050505050565b600081604051602001610bd89190611286565b604051602081830303815290604052805190602001208484604051602001610c01929190611299565b604051602081830303815290604052805190602001201490509392505050565b508054610c2d90610f69565b6000825580601f10610c3d575050565b601f016020900490600052602060002090810190610c5b9190610c5e565b50565b5b80821115610c735760008155600101610c5f565b5090565b60008083601f840112610c8957600080fd5b50813567ffffffffffffffff811115610ca157600080fd5b6020830191508360208285010111156104ac57600080fd5b60008060008060408587031215610ccf57600080fd5b843567ffffffffffffffff80821115610ce757600080fd5b610cf388838901610c77565b90965094506020870135915080821115610d0c57600080fd5b50610d1987828801610c77565b95989497509550505050565b60008060208385031215610d3857600080fd5b823567ffffffffffffffff811115610d4f57600080fd5b610d5b85828601610c77565b90969095509350505050565b60005b83811015610d82578181015183820152602001610d6a565b50506000910152565b60008151808452610da3816020860160208601610d67565b601f01601f19169290920160200192915050565b634e487b7160e01b600052602160045260246000fd5b604081526000610de06040830185610d8b565b905060048310610e0057634e487b7160e01b600052602160045260246000fd5b8260208301529392505050565b60008060008060008060608789031215610e2657600080fd5b863567ffffffffffffffff80821115610e3e57600080fd5b610e4a8a838b01610c77565b90985096506020890135915080821115610e6357600080fd5b610e6f8a838b01610c77565b90965094506040890135915080821115610e8857600080fd5b50610e9589828a01610c77565b979a9699509497509295939492505050565b600060208284031215610eb957600080fd5b813560048110610ec857600080fd5b9392505050565b600080600080600060608688031215610ee757600080fd5b853567ffffffffffffffff80821115610eff57600080fd5b610f0b89838a01610c77565b90975095506020880135915080821115610f2457600080fd5b50610f3188828901610c77565b909450925050604086013560ff81168114610f4b57600080fd5b809150509295509295909350565b8183823760009101908152919050565b600181811c90821680610f7d57607f821691505b602082108103610f9d57634e487b7160e01b600052602260045260246000fd5b50919050565b634e487b7160e01b600052604160045260246000fd5b601f82111561100357600081815260208120601f850160051c81016020861015610fe05750805b601f850160051c820191505b81811015610fff57828155600101610fec565b5050505b505050565b67ffffffffffffffff83111561102057611020610fa3565b6110348361102e8354610f69565b83610fb9565b6000601f84116001811461106857600085156110505750838201355b600019600387901b1c1916600186901b1783556105a6565b600083815260209020601f19861690835b828110156110995786850135825560209485019460019092019101611079565b50868210156110b65760001960f88860031b161c19848701351681555b505060018560011b0183555050505050565b634e487b7160e01b600052603260045260246000fd5b6000600182016110fe57634e487b7160e01b600052601160045260246000fd5b5060010190565b600080835461111381610f69565b6001828116801561112b57600181146111405761116f565b60ff198416875282151583028701945061116f565b8760005260208060002060005b858110156111665781548a82015290840190820161114d565b50505082870194505b50929695505050505050565b602080825260159082015274105d5d1a195b9d1a58d85d1a5bdb8811985a5b1959605a1b604082015260600190565b600082516111bc818460208701610d67565b9190910192915050565b815167ffffffffffffffff8111156111e0576111e0610fa3565b6111f4816111ee8454610f69565b84610fb9565b602080601f83116001811461122957600084156112115750858301515b600019600386901b1c1916600185901b178555610fff565b600085815260208120601f198616915b8281101561125857888601518255948401946001909101908401611239565b50858210156112765787850151600019600388901b60f8161c191681555b5050505050600190811b01905550565b602081526000610ec86020830184610d8b565b60208152816020820152818360408301376000818301604090810191909152601f909201601f1916010191905056fea26469706673582212208ffa0bc40ab4a56759ff97bbb27c15a8b948032cabdbeea849619223c512303264736f6c63430008150033",
    "linkReferences": {}
  },
  "methodIdentifiers": {
    "getLocker(string,string)": "0395c88f",
    "price(uint8)": "b7fafcd7",
    "putItem(string,string,uint8)": "f49fb092",
    "retrieveItem(string,string)": "1c6c0f80",
    "sellItem(string,string)": "ceb2b208",
    "transferItem(string,string,string)": "b2de1d64",
    "viewItems(string)": "19b67610"
  },
  "id": 22
}