{
  "abi": [
    {
      "inputs": [],
      "name": "ECDSAInvalidSignature",
      "type": "error"
    },
    {
      "inputs": [
        {
          "internalType": "uint256",
          "name": "length",
          "type": "uint256"
        }
      ],
      "name": "ECDSAInvalidSignatureLength",
      "type": "error"
    },
    {
      "inputs": [
        {
          "internalType": "bytes32",
          "name": "s",
          "type": "bytes32"
        }
      ],
      "name": "ECDSAInvalidSignatureS",
      "type": "error"
    },
    {
      "inputs": [],
      "name": "YOUR_CHALLENGE_CONTRACT_ADDRESS",
      "outputs": [
        {
          "internalType": "address",
          "name": "",
          "type": "address"
        }
      ],
      "stateMutability": "view",
      "type": "function"
    },
    {
      "inputs": [],
      "name": "attack2",
      "outputs": [
        {
          "internalType": "address[]",
          "name": "",
          "type": "address[]"
        }
      ],
      "stateMutability": "view",
      "type": "function"
    },
    {
      "inputs": [
        {
          "internalType": "bytes[]",
          "name": "signatures",
          "type": "bytes[]"
        },
        {
          "internalType": "address",
          "name": "to",
          "type": "address"
        }
      ],
      "name": "closeCampaign",
      "outputs": [
        {
          "internalType": "address[]",
          "name": "",
          "type": "address[]"
        }
      ],
      "stateMutability": "nonpayable",
      "type": "function"
    },
    {
      "inputs": [],
      "name": "creature",
      "outputs": [
        {
          "internalType": "contract CouncilWallet",
          "name": "",
          "type": "address"
        }
      ],
      "stateMutability": "view",
      "type": "function"
    }
  ],
  "bytecode": {
    "object": "0x608060405260008054737eb0803195b4686a8cadfda14121e286bde6a76a6001600160a01b0319918216811790925560018054909116909117905534801561004657600080fd5b506106a0806100566000396000f3fe608060405234801561001057600080fd5b506004361061004c5760003560e01c80635fb95d18146100515780639fcec69814610081578063dac13f6d14610096578063dc5f9e9b146100a9575b600080fd5b600054610064906001600160a01b031681565b6040516001600160a01b0390911681526020015b60405180910390f35b6100896100bc565b604051610078919061043d565b600154610064906001600160a01b031681565b6100896100b73660046104ed565b610134565b60408051600b808252610180820190925260609160009190602082016101608036833701905050905060005b600b81101561012e578082828151811061010457610104610617565b6001600160a01b0390921660209283029190910190910152806101268161062d565b9150506100e8565b50919050565b604080516009808252610140820190925260609160009190602082016101208036833701905050604080516001600160a01b03861660208201529192506000910160405160208183030381529060405280519060200120905060005b60098110156102355760006101f58783815181106101b0576101b0610617565b60200260200101516101ef857f19457468657265756d205369676e6564204d6573736167653a0a3332000000006000908152601c91909152603c902090565b9061023f565b90508084838151811061020a5761020a610617565b6001600160a01b0390921660209283029190910190910152508061022d8161062d565b915050610190565b5090949350505050565b60008060008061024f868661025f565b92509250925061023582826102ac565b600080600083516041036102995760208401516040850151606086015160001a61028b8882858561036e565b9550955095505050506102a5565b50508151600091506002905b9250925092565b60008260038111156102c0576102c0610654565b036102c9575050565b60018260038111156102dd576102dd610654565b036102fb5760405163f645eedf60e01b815260040160405180910390fd5b600282600381111561030f5761030f610654565b036103355760405163fce698f760e01b8152600481018290526024015b60405180910390fd5b600382600381111561034957610349610654565b0361036a576040516335e2f38360e21b81526004810182905260240161032c565b5050565b600080807f7fffffffffffffffffffffffffffffff5d576e7357a4501ddfe92f46681b20a08411156103a95750600091506003905082610433565b604080516000808252602082018084528a905260ff891692820192909252606081018790526080810186905260019060a0016020604051602081039080840390855afa1580156103fd573d6000803e3d6000fd5b5050604051601f1901519150506001600160a01b03811661042957506000925060019150829050610433565b9250600091508190505b9450945094915050565b6020808252825182820181905260009190848201906040850190845b8181101561047e5783516001600160a01b031683529284019291840191600101610459565b50909695505050505050565b634e487b7160e01b600052604160045260246000fd5b604051601f8201601f1916810167ffffffffffffffff811182821017156104c9576104c961048a565b604052919050565b80356001600160a01b03811681146104e857600080fd5b919050565b600080604080848603121561050157600080fd5b833567ffffffffffffffff8082111561051957600080fd5b8186019150601f878184011261052e57600080fd5b82356020838211156105425761054261048a565b8160051b6105518282016104a0565b928352858101820192828101908c85111561056b57600080fd5b83880192505b848310156105f8578235878111156105895760008081fd5b8801603f81018e1361059b5760008081fd5b84810135888111156105af576105af61048a565b6105c0818901601f191687016104a0565b8181528f8c8385010111156105d55760008081fd5b818c84018883013760009181018701919091528352509183019190830190610571565b99506106089150508982016104d1565b96505050505050509250929050565b634e487b7160e01b600052603260045260246000fd5b60006001820161064d57634e487b7160e01b600052601160045260246000fd5b5060010190565b634e487b7160e01b600052602160045260246000fdfea26469706673582212201c7f7eb98eb68299186ce39c8f6f46f4673c3b2398c490d9971ae6f13cbb3fa864736f6c63430008120033",
    "linkReferences": {}
  },
  "methodIdentifiers": {
    "YOUR_CHALLENGE_CONTRACT_ADDRESS()": "5fb95d18",
    "attack2()": "9fcec698",
    "closeCampaign(bytes[],address)": "dc5f9e9b",
    "creature()": "dac13f6d"
  },
  "id": 1
}