{
  "abi": [
    {
      "inputs": [],
      "name": "YOUR_CHALLENGE_CONTRACT_ADDRESS",
      "outputs": [
        {
          "internalType": "address payable",
          "name": "",
          "type": "address"
        }
      ],
      "stateMutability": "view",
      "type": "function"
    },
    {
      "inputs": [
        {
          "internalType": "uint256",
          "name": "amount",
          "type": "uint256"
        }
      ],
      "name": "attack2",
      "outputs": [],
      "stateMutability": "payable",
      "type": "function"
    },
    {
      "inputs": [],
      "name": "creature",
      "outputs": [
        {
          "internalType": "contract AuctionHouse",
          "name": "",
          "type": "address"
        }
      ],
      "stateMutability": "view",
      "type": "function"
    }
  ],
  "bytecode": {
    "object": "0x6080604052600080546001600160a01b031990811673a735e8f54a61031b17a2a855cb14c7c1fd298f6d1791829055600180549091166001600160a01b039290921691909117905534801561005357600080fd5b5061014a806100636000396000f3fe6080604052600436106100345760003560e01c80635fb95d1814610039578063cff5c44f1461006a578063dac13f6d14610089575b600080fd5b34801561004557600080fd5b5061004e61009e565b604080516001600160a01b039092168252519081900360200190f35b6100876004803603602081101561008057600080fd5b50356100ad565b005b34801561009557600080fd5b5061004e610105565b6000546001600160a01b031681565b600080546040516001600160a01b039091169183919081818185875af1925050503d80600081146100fa576040519150601f19603f3d011682016040523d82523d6000602084013e6100ff565b606091505b50505050565b6001546001600160a01b03168156fea26469706673582212201181c085a97772326e58fcfaf67f34c940b1c1b824e565461cd36c7c725643fa64736f6c63430007060033",
    "linkReferences": {}
  },
  "methodIdentifiers": {
    "YOUR_CHALLENGE_CONTRACT_ADDRESS()": "5fb95d18",
    "attack2(uint256)": "cff5c44f",
    "creature()": "dac13f6d"
  },
  "id": 1
}