{
  "abi": [
    {
      "inputs": [],
      "name": "YOUR_CHALLENGE_CONTRACT_ADDRESS",
      "outputs": [
        {
          "internalType": "address payable",
          "name": "",
          "type": "address"
        }
      ],
      "stateMutability": "view",
      "type": "function"
    },
    {
      "inputs": [],
      "name": "creature",
      "outputs": [
        {
          "internalType": "contract AuctionHouse",
          "name": "",
          "type": "address"
        }
      ],
      "stateMutability": "view",
      "type": "function"
    },
    {
      "stateMutability": "payable",
      "type": "receive"
    }
  ],
  "bytecode": {
    "object": "0x6080604052600080546001600160a01b031990811673cc9226ab913a9ede76cb3b828c97169121e78aeb1791829055600180549091166001600160a01b039290921691909117905534801561005357600080fd5b5061011b806100636000396000f3fe60806040526004361060295760003560e01c80635fb95d18146087578063dac13f6d1460b5576082565b36608257600080546040516001600160a01b039091169134919081818185875af1925050503d80600081146078576040519150601f19603f3d011682016040523d82523d6000602084013e607d565b606091505b505050005b600080fd5b348015609257600080fd5b50609960c7565b604080516001600160a01b039092168252519081900360200190f35b34801560c057600080fd5b50609960d6565b6000546001600160a01b031681565b6001546001600160a01b03168156fea26469706673582212209f4fe322ee68030b290344f06da78e955023761e31c801c194b72679f7aa758364736f6c63430007060033",
    "linkReferences": {}
  },
  "methodIdentifiers": {
    "YOUR_CHALLENGE_CONTRACT_ADDRESS()": "5fb95d18",
    "creature()": "dac13f6d"
  },
  "id": 1
}