{
  "abi": [
    {
      "inputs": [],
      "name": "YOUR_CHALLENGE_CONTRACT_ADDRESS",
      "outputs": [
        {
          "internalType": "address payable",
          "name": "",
          "type": "address"
        }
      ],
      "stateMutability": "view",
      "type": "function"
    },
    {
      "inputs": [],
      "name": "claim",
      "outputs": [],
      "stateMutability": "nonpayable",
      "type": "function"
    },
    {
      "inputs": [],
      "name": "creature",
      "outputs": [
        {
          "internalType": "contract AuctionHouse",
          "name": "",
          "type": "address"
        }
      ],
      "stateMutability": "view",
      "type": "function"
    },
    {
      "inputs": [],
      "name": "withdraw",
      "outputs": [],
      "stateMutability": "nonpayable",
      "type": "function"
    },
    {
      "stateMutability": "payable",
      "type": "receive"
    }
  ],
  "bytecode": {
    "object": "0x6080604052600080546001600160a01b0319908116739cd3fc15a9a963274fe569b9bdafcc9e1c0678ea1791829055600180549091166001600160a01b039290921691909117905534801561005357600080fd5b50610224806100636000396000f3fe6080604052600436106100435760003560e01c80633ccfd60b146100a45780634e71d92d146100bb5780635fb95d18146100d0578063dac13f6d146101015761009f565b3661009f57600080546040516001600160a01b039091169134919081818185875af1925050503d8060008114610095576040519150601f19603f3d011682016040523d82523d6000602084013e61009a565b606091505b505050005b600080fd5b3480156100b057600080fd5b506100b9610116565b005b3480156100c757600080fd5b506100b9610180565b3480156100dc57600080fd5b506100e56101d0565b604080516001600160a01b039092168252519081900360200190f35b34801561010d57600080fd5b506100e56101df565b600160009054906101000a90046001600160a01b03166001600160a01b03166363d82a6d6040518163ffffffff1660e01b8152600401600060405180830381600087803b15801561016657600080fd5b505af115801561017a573d6000803e3d6000fd5b50505050565b600160009054906101000a90046001600160a01b03166001600160a01b03166370740ac96040518163ffffffff1660e01b8152600401600060405180830381600087803b15801561016657600080fd5b6000546001600160a01b031681565b6001546001600160a01b03168156fea2646970667358221220e0fd3ed7f575b3248440699da0740bc6ef270a50c499ff154f3d16eed91313cc64736f6c63430007060033",
    "linkReferences": {}
  },
  "methodIdentifiers": {
    "YOUR_CHALLENGE_CONTRACT_ADDRESS()": "5fb95d18",
    "claim()": "4e71d92d",
    "creature()": "dac13f6d",
    "withdraw()": "3ccfd60b"
  },
  "id": 1
}