{
  "abi": [
    {
      "inputs": [],
      "name": "YOUR_CHALLENGE_CONTRACT_ADDRESS",
      "outputs": [
        {
          "internalType": "address",
          "name": "",
          "type": "address"
        }
      ],
      "stateMutability": "view",
      "type": "function"
    },
    {
      "inputs": [],
      "name": "attack2",
      "outputs": [],
      "stateMutability": "nonpayable",
      "type": "function"
    },
    {
      "inputs": [],
      "name": "creature",
      "outputs": [
        {
          "internalType": "contract Vault",
          "name": "",
          "type": "address"
        }
      ],
      "stateMutability": "view",
      "type": "function"
    },
    {
      "inputs": [],
      "name": "nonce",
      "outputs": [
        {
          "internalType": "uint256",
          "name": "",
          "type": "uint256"
        }
      ],
      "stateMutability": "view",
      "type": "function"
    },
    {
      "inputs": [],
      "name": "owner",
      "outputs": [
        {
          "internalType": "address",
          "name": "",
          "type": "address"
        }
      ],
      "stateMutability": "view",
      "type": "function"
    }
  ],
  "bytecode": {
    "object": "0x6080604052600080547331d449b682ee3a0d16f18456a9f9eebf3a78ce126001600160a01b0319918216811790925560058054909116909117905534801561004657600080fd5b5061039b806100566000396000f3fe608060405234801561001057600080fd5b50600436106100575760003560e01c80635fb95d181461005c5780638da5cb5b1461008c5780639fcec6981461009f578063affed0e0146100a9578063dac13f6d146100c0575b600080fd5b60005461006f906001600160a01b031681565b6040516001600160a01b0390911681526020015b60405180910390f35b60015461006f906001600160a01b031681565b6100a76100d3565b005b6100b260035481565b604051908152602001610083565b60055461006f906001600160a01b031681565b600180546001600160a01b031916301790556040805142406020820152016040516020818303038152906040528051906020012060028190555060006040610119610221565b600480546001600160801b0319166001600160c01b03199290921690921c608090811c91821780845560055460405163386bec2360e21b81529395506001600160a01b03169363e1afb08c93610184939290921b91016001600160801b031991909116815260200190565b600060405180830381600087803b15801561019e57600080fd5b505af11580156101b2573d6000803e3d6000fd5b50505050600560009054906101000a90046001600160a01b03166001600160a01b031663371144cd6040518163ffffffff1660e01b8152600401600060405180830381600087803b15801561020657600080fd5b505af115801561021a573d6000803e3d6000fd5b5050505050565b6000806102426102326002426102e8565b61023d906001610320565b610287565b905060006102506002610287565b6002549290921860801c91909118609081901b6001600160d01b03191660609190911b67ffffffffffffffff60a01b161792915050565b6003546000906102978343610339565b6102a2919040610320565b6040516020016102b491815260200190565b60408051601f1981840301815291905280516020909101206003805491925060006102de8361034c565b9190505550919050565b60008261030557634e487b7160e01b600052601260045260246000fd5b500690565b634e487b7160e01b600052601160045260246000fd5b808201808211156103335761033361030a565b92915050565b818103818111156103335761033361030a565b60006001820161035e5761035e61030a565b506001019056fea26469706673582212205d5944d09cf88e6e2decd5250206e247a8dca3bcda9f7767a526293bc1f3c3bc64736f6c63430008140033",
    "linkReferences": {}
  },
  "methodIdentifiers": {
    "YOUR_CHALLENGE_CONTRACT_ADDRESS()": "5fb95d18",
    "attack2()": "9fcec698",
    "creature()": "dac13f6d",
    "nonce()": "affed0e0",
    "owner()": "8da5cb5b"
  },
  "id": 20
}