{
  "abi": [
    {
      "inputs": [],
      "stateMutability": "nonpayable",
      "type": "constructor"
    },
    {
      "inputs": [],
      "name": "YOUR_CHALLENGE_CONTRACT_ADDRESS",
      "outputs": [
        {
          "internalType": "address",
          "name": "",
          "type": "address"
        }
      ],
      "stateMutability": "view",
      "type": "function"
    },
    {
      "inputs": [],
      "name": "attack2",
      "outputs": [],
      "stateMutability": "nonpayable",
      "type": "function"
    },
    {
      "inputs": [],
      "name": "creature",
      "outputs": [
        {
          "internalType": "contract Vault",
          "name": "",
          "type": "address"
        }
      ],
      "stateMutability": "view",
      "type": "function"
    },
    {
      "inputs": [],
      "name": "nonce",
      "outputs": [
        {
          "internalType": "uint256",
          "name": "",
          "type": "uint256"
        }
      ],
      "stateMutability": "view",
      "type": "function"
    },
    {
      "inputs": [],
      "name": "owner",
      "outputs": [
        {
          "internalType": "address",
          "name": "",
          "type": "address"
        }
      ],
      "stateMutability": "view",
      "type": "function"
    }
  ],
  "bytecode": {
    "object": "0x60806040526000805473c8d36a3b105fb53abdaa26df1661264fbae2b42e6001600160a01b0319918216811790925560058054909116909117905534801561004657600080fd5b50600180546001600160a01b03191630179055610389806100686000396000f3fe608060405234801561001057600080fd5b50600436106100575760003560e01c80635fb95d181461005c5780638da5cb5b1461008c5780639fcec6981461009f578063affed0e0146100a9578063dac13f6d146100c0575b600080fd5b60005461006f906001600160a01b031681565b6040516001600160a01b0390911681526020015b60405180910390f35b60015461006f906001600160a01b031681565b6100a76100d3565b005b6100b260035481565b604051908152602001610083565b60055461006f906001600160a01b031681565b604080514240602082015201604051602081830303815290604052805190602001206002819055506000604061010761020f565b600480546001600160801b0319166001600160c01b03199290921690921c608090811c91821780845560055460405163386bec2360e21b81529395506001600160a01b03169363e1afb08c93610172939290921b91016001600160801b031991909116815260200190565b600060405180830381600087803b15801561018c57600080fd5b505af11580156101a0573d6000803e3d6000fd5b50505050600560009054906101000a90046001600160a01b03166001600160a01b031663371144cd6040518163ffffffff1660e01b8152600401600060405180830381600087803b1580156101f457600080fd5b505af1158015610208573d6000803e3d6000fd5b5050505050565b6000806102306102206002426102d6565b61022b90600161030e565b610275565b9050600061023e6002610275565b6002549290921860801c91909118609081901b6001600160d01b03191660609190911b67ffffffffffffffff60a01b161792915050565b6003546000906102858343610327565b61029091904061030e565b6040516020016102a291815260200190565b60408051601f1981840301815291905280516020909101206003805491925060006102cc8361033a565b9190505550919050565b6000826102f357634e487b7160e01b600052601260045260246000fd5b500690565b634e487b7160e01b600052601160045260246000fd5b80820180821115610321576103216102f8565b92915050565b81810381811115610321576103216102f8565b60006001820161034c5761034c6102f8565b506001019056fea26469706673582212205597f4c3970f5d09d3694d82259474afef5a177b72469001b40fa0c90b6f28e264736f6c63430008140033",
    "linkReferences": {}
  },
  "methodIdentifiers": {
    "YOUR_CHALLENGE_CONTRACT_ADDRESS()": "5fb95d18",
    "attack2()": "9fcec698",
    "creature()": "dac13f6d",
    "nonce()": "affed0e0",
    "owner()": "8da5cb5b"
  },
  "id": 0
}