{
  "abi": [
    {
      "inputs": [
        {
          "internalType": "address",
          "name": "_multisigWallet",
          "type": "address"
        }
      ],
      "stateMutability": "nonpayable",
      "type": "constructor"
    },
    {
      "inputs": [],
      "name": "TARGET_FUNDS",
      "outputs": [
        {
          "internalType": "uint256",
          "name": "",
          "type": "uint256"
        }
      ],
      "stateMutability": "view",
      "type": "function"
    },
    {
      "inputs": [
        {
          "internalType": "address",
          "name": "to",
          "type": "address"
        }
      ],
      "name": "closeCampaign",
      "outputs": [],
      "stateMutability": "nonpayable",
      "type": "function"
    },
    {
      "inputs": [],
      "name": "donate",
      "outputs": [],
      "stateMutability": "payable",
      "type": "function"
    },
    {
      "stateMutability": "payable",
      "type": "receive"
    }
  ],
  "bytecode": {
    "object": "0x608060405234801561001057600080fd5b506040516101e53803806101e583398101604081905261002f91610054565b600080546001600160a01b0319166001600160a01b0392909216919091179055610084565b60006020828403121561006657600080fd5b81516001600160a01b038116811461007d57600080fd5b9392505050565b610152806100936000396000f3fe6080604052600436106100385760003560e01c806367f5f32d146100445780638c0e0a1f14610066578063ed88c68e1461006457600080fd5b3661003f57005b600080fd5b34801561005057600080fd5b5061006461005f3660046100ec565b610095565b005b34801561007257600080fd5b50610083683635c9adc5dea0000081565b60405190815260200160405180910390f35b6000546001600160a01b031633146100e05760405162461bcd60e51b815260206004820152600a60248201526927b7363c9037bbb732b960b11b604482015260640160405180910390fd5b806001600160a01b0316ff5b6000602082840312156100fe57600080fd5b81356001600160a01b038116811461011557600080fd5b939250505056fea2646970667358221220878faaf6258cc1ed8faa3576627f44d9a362af11a87ade7d261fd367877c7c3f64736f6c63430008120033",
    "linkReferences": {}
  },
  "methodIdentifiers": {
    "TARGET_FUNDS()": "8c0e0a1f",
    "closeCampaign(address)": "67f5f32d",
    "donate()": "ed88c68e"
  },
  "id": 20
}