{
  "abi": [
    {
      "inputs": [],
      "name": "attack2",
      "outputs": [],
      "stateMutability": "nonpayable",
      "type": "function"
    },
    {
      "inputs": [],
      "name": "creature",
      "outputs": [
        {
          "internalType": "contract Creature",
          "name": "",
          "type": "address"
        }
      ],
      "stateMutability": "view",
      "type": "function"
    }
  ],
  "bytecode": {
    "object": "0x6080604052600a60405161001290610062565b6040518091039082f090508015801561002f573d6000803e3d6000fd5b50600080546001600160a01b0319166001600160a01b039290921691909117905534801561005c57600080fd5b5061006f565b61023e8061018083390190565b6101028061007e6000396000f3fe6080604052348015600f57600080fd5b506004361060325760003560e01c80639fcec698146037578063dac13f6d14603f575b600080fd5b603d606d565b005b6000546051906001600160a01b031681565b6040516001600160a01b03909116815260200160405180910390f35b60005460405163326ec48d60e11b81526103e860048201526001600160a01b03909116906364dd891a90602401600060405180830381600087803b15801560b357600080fd5b505af115801560c6573d6000803e3d6000fd5b5050505056fea26469706673582212203b29f595197533565c3cd3f9f57eb564b8dbc3ebede1cc346c9e16832aa46e1464736f6c6343000814003360806040526103e8600055610225806100196000396000f3fe608060405234801561001057600080fd5b506004361061004c5760003560e01c806341c2132f1461005157806364dd891a146100815780639b7b2ab014610096578063d21d2cd11461009e575b600080fd5b600154610064906001600160a01b031681565b6040516001600160a01b0390911681526020015b60405180910390f35b61009461008f3660046101af565b6100b5565b005b61009461012f565b6100a760005481565b604051908152602001610078565b6001546001600160a01b03166100d857600180546001600160a01b031916331790555b3332141580156100f357506001546001600160a01b03163314155b15610114578060008082825461010991906101c8565b9091555061012c9050565b600080600082825461012691906101c8565b90915550505b50565b600054156101835760405162461bcd60e51b815260206004820152601860248201527f4372656174757265206973207374696c6c20616c697665210000000000000000604482015260640160405180910390fd5b60405133904780156108fc02916000818181858888f1935050505015801561012c573d6000803e3d6000fd5b6000602082840312156101c157600080fd5b5035919050565b818103818111156101e957634e487b7160e01b600052601160045260246000fd5b9291505056fea26469706673582212208979c8159d5a4d8b3bce6c49f7d521ece81de838669e9920bc12119c15f34f3964736f6c63430008140033",
    "linkReferences": {}
  },
  "methodIdentifiers": {
    "attack2()": "9fcec698",
    "creature()": "dac13f6d"
  },
  "id": 19
}