{
  "abi": [
    {
      "inputs": [],
      "name": "YOUR_CHALLENGE_CONTRACT_ADDRESS",
      "outputs": [
        {
          "internalType": "address",
          "name": "",
          "type": "address"
        }
      ],
      "stateMutability": "view",
      "type": "function"
    },
    {
      "inputs": [],
      "name": "attack2",
      "outputs": [],
      "stateMutability": "nonpayable",
      "type": "function"
    },
    {
      "inputs": [],
      "name": "creature",
      "outputs": [
        {
          "internalType": "contract Creature",
          "name": "",
          "type": "address"
        }
      ],
      "stateMutability": "view",
      "type": "function"
    }
  ],
  "bytecode": {
    "object": "0x60806040526000805473376027a2f9c03b547ac0a0a74b5b95d6fe1fdb3f6001600160a01b0319918216811790925560018054909116909117905534801561004657600080fd5b5061011e806100566000396000f3fe6080604052348015600f57600080fd5b5060043610603c5760003560e01c80635fb95d181460415780639fcec69814606f578063dac13f6d146077575b600080fd5b6000546053906001600160a01b031681565b6040516001600160a01b03909116815260200160405180910390f35b60756089565b005b6001546053906001600160a01b031681565b60015460405163326ec48d60e11b81526103e860048201526001600160a01b03909116906364dd891a90602401600060405180830381600087803b15801560cf57600080fd5b505af115801560e2573d6000803e3d6000fd5b5050505056fea264697066735822122082e16a0439f399b19d07e21316d8774a01c97832ed40cc15436fcc5abcd14beb64736f6c63430008140033",
    "linkReferences": {}
  },
  "methodIdentifiers": {
    "YOUR_CHALLENGE_CONTRACT_ADDRESS()": "5fb95d18",
    "attack2()": "9fcec698",
    "creature()": "dac13f6d"
  },
  "id": 0
}