{
  "abi": [
    {
      "inputs": [],
      "name": "YOUR_CHALLENGE_CONTRACT_ADDRESS",
      "outputs": [
        {
          "internalType": "address",
          "name": "",
          "type": "address"
        }
      ],
      "stateMutability": "view",
      "type": "function"
    },
    {
      "inputs": [],
      "name": "attack2",
      "outputs": [],
      "stateMutability": "nonpayable",
      "type": "function"
    },
    {
      "inputs": [],
      "name": "creature",
      "outputs": [
        {
          "internalType": "contract Lockers",
          "name": "",
          "type": "address"
        }
      ],
      "stateMutability": "view",
      "type": "function"
    },
    {
      "stateMutability": "payable",
      "type": "receive"
    }
  ],
  "bytecode": {
    "object": "0x6000805473fd0f4dea4607acdd97d7eb39516ee6f1bc1e13236001600160a01b0319918216811790925560018054909116909117905560c060405260066080908152652b19b732183960d11b60a05260029061005b90826101ce565b50604080518082019091526012815271281a1a9aafbb983922121213131c1c2010bf60711b602082015260039061009290826101ce565b5060408051808201909152600b81526a62656c696566737061636560a81b60208201526004906100c290826101ce565b5060408051808201909152600e81526d2bb4bd30b93239a9b1b2b83a32b960911b60208201526005906100f590826101ce565b506040518060600160405280602881526020016105726028913960069061011c90826101ce565b5034801561012957600080fd5b5061028d565b634e487b7160e01b600052604160045260246000fd5b600181811c9082168061015957607f821691505b60208210810361017957634e487b7160e01b600052602260045260246000fd5b50919050565b601f8211156101c957600081815260208120601f850160051c810160208610156101a65750805b601f850160051c820191505b818110156101c5578281556001016101b2565b5050505b505050565b81516001600160401b038111156101e7576101e761012f565b6101fb816101f58454610145565b8461017f565b602080601f83116001811461023057600084156102185750858301515b600019600386901b1c1916600185901b1785556101c5565b600085815260208120601f198616915b8281101561025f57888601518255948401946001909101908401610240565b508582101561027d5787850151600019600388901b60f8161c191681555b5050505050600190811b01905550565b6102d68061029c6000396000f3fe6080604052600436106100385760003560e01c80635fb95d18146100495780639fcec69814610085578063dac13f6d1461009a57600080fd5b3661004457600080fd5b005b600080fd5b34801561005557600080fd5b50600054610069906001600160a01b031681565b6040516001600160a01b03909116815260200160405180910390f35b34801561009157600080fd5b506100426100ba565b3480156100a657600080fd5b50600154610069906001600160a01b031681565b600154604051630395c88f60e01b81526001600160a01b0390911690630395c88f906100ee9060029060039060040161022f565b600060405180830381600087803b15801561010857600080fd5b505af115801561011c573d6000803e3d6000fd5b5050600154604051632cb7875960e21b81526001600160a01b03909116925063b2de1d6491506101579060059060029060069060040161025d565b600060405180830381600087803b15801561017157600080fd5b505af1158015610185573d6000803e3d6000fd5b50505050565b8054600090600181811c90808316806101a557607f831692505b602080841082036101c657634e487b7160e01b600052602260045260246000fd5b838852602088018280156101e157600181146101f757610222565b60ff198716825285151560051b82019750610222565b60008981526020902060005b8781101561021c57815484820152908601908401610203565b83019850505b5050505050505092915050565b604081526000610242604083018561018b565b8281036020840152610254818561018b565b95945050505050565b606081526000610270606083018661018b565b8281036020840152610282818661018b565b90508281036040840152610296818561018b565b969550505050505056fea2646970667358221220bcec294fa416994cb667a2adc0872378359bce0abf1bcb302800d95efdc80bd864736f6c63430008140033737334234e71376e4e794b4d665a3d5845536e4f7a5032686b3a535352437a6f3251506b34777e7e",
    "linkReferences": {}
  },
  "methodIdentifiers": {
    "YOUR_CHALLENGE_CONTRACT_ADDRESS()": "5fb95d18",
    "attack2()": "9fcec698",
    "creature()": "dac13f6d"
  },
  "id": 0
}